{
  "contractName": "FundRaiser",
  "abi": [
    {
      "inputs": [],
      "stateMutability": "nonpayable",
      "type": "constructor"
    },
    {
      "inputs": [
        {
          "internalType": "uint256",
          "name": "",
          "type": "uint256"
        }
      ],
      "name": "events",
      "outputs": [
        {
          "internalType": "string",
          "name": "name",
          "type": "string"
        },
        {
          "internalType": "uint256",
          "name": "goal",
          "type": "uint256"
        },
        {
          "internalType": "uint256",
          "name": "goalAchieved",
          "type": "uint256"
        }
      ],
      "stateMutability": "view",
      "type": "function",
      "constant": true
    },
    {
      "inputs": [
        {
          "internalType": "uint256",
          "name": "eventId",
          "type": "uint256"
        },
        {
          "internalType": "string",
          "name": "_name",
          "type": "string"
        },
        {
          "internalType": "uint256",
          "name": "_goal",
          "type": "uint256"
        }
      ],
      "name": "createEvent",
      "outputs": [],
      "stateMutability": "nonpayable",
      "type": "function"
    },
    {
      "inputs": [
        {
          "internalType": "uint256",
          "name": "_id",
          "type": "uint256"
        },
        {
          "internalType": "string",
          "name": "_name",
          "type": "string"
        },
        {
          "internalType": "uint256",
          "name": "_goal",
          "type": "uint256"
        }
      ],
      "name": "updateEvent",
      "outputs": [],
      "stateMutability": "nonpayable",
      "type": "function"
    },
    {
      "inputs": [
        {
          "internalType": "uint256",
          "name": "_id",
          "type": "uint256"
        },
        {
          "internalType": "uint256",
          "name": "_amount",
          "type": "uint256"
        }
      ],
      "name": "fund",
      "outputs": [],
      "stateMutability": "payable",
      "type": "function",
      "payable": true
    },
    {
      "inputs": [
        {
          "internalType": "uint256",
          "name": "_id",
          "type": "uint256"
        }
      ],
      "name": "getEventDetails",
      "outputs": [
        {
          "components": [
            {
              "internalType": "string",
              "name": "name",
              "type": "string"
            },
            {
              "internalType": "uint256",
              "name": "goal",
              "type": "uint256"
            },
            {
              "internalType": "uint256",
              "name": "goalAchieved",
              "type": "uint256"
            }
          ],
          "internalType": "struct FundRaiser.Event",
          "name": "",
          "type": "tuple"
        }
      ],
      "stateMutability": "view",
      "type": "function",
      "constant": true
    }
  ],
  "bytecode": "0x608060405234801561001057600080fd5b50610b9f806100206000396000f3fe60806040526004361061004a5760003560e01c80630b7914301461004f57806352dd75711461008e57806383372b5b146100b7578063a65e2cfd146100e0578063ec38d5a0146100fc575b600080fd5b34801561005b57600080fd5b506100766004803603810190610071919061055c565b610139565b60405161008593929190610631565b60405180910390f35b34801561009a57600080fd5b506100b560048036038101906100b091906107a4565b6101eb565b005b3480156100c357600080fd5b506100de60048036038101906100d99190610873565b6102a0565b005b6100fa60048036038101906100f591906108e7565b61034c565b005b34801561010857600080fd5b50610123600480360381019061011e919061055c565b61037c565b60405161013091906109d0565b60405180910390f35b600060205280600052604060002060009150905080600001805461015c90610a21565b80601f016020809104026020016040519081016040528092919081815260200182805461018890610a21565b80156101d55780601f106101aa576101008083540402835291602001916101d5565b820191906000526020600020905b8154815290600101906020018083116101b857829003601f168201915b5050505050908060010154908060020154905083565b600080848152602001908152602001600020600101546000808581526020019081526020016000206002015410610257576040517f08c379a000000000000000000000000000000000000000000000000000000000815260040161024e90610ac4565b60405180910390fd5b81600080858152602001908152602001600020600001908051906020019061028092919061044e565b508060008085815260200190815260200160002060010181905550505050565b604051806060016040528084848080601f016020809104026020016040519081016040528093929190818152602001838380828437600081840152601f19601f8201169050808301925050505050505081526020018281526020016000815250600080868152602001908152602001600020600082015181600001908051906020019061032e92919061044e565b50602082015181600101556040820151816002015590505050505050565b8060008084815260200190815260200160002060020160008282546103719190610b13565b925050819055505050565b6103846104d4565b6000808381526020019081526020016000206040518060600160405290816000820180546103b190610a21565b80601f01602080910402602001604051908101604052809291908181526020018280546103dd90610a21565b801561042a5780601f106103ff5761010080835404028352916020019161042a565b820191906000526020600020905b81548152906001019060200180831161040d57829003601f168201915b50505050508152602001600182015481526020016002820154815250509050919050565b82805461045a90610a21565b90600052602060002090601f01602090048101928261047c57600085556104c3565b82601f1061049557805160ff19168380011785556104c3565b828001600101855582156104c3579182015b828111156104c25782518255916020019190600101906104a7565b5b5090506104d091906104f5565b5090565b60405180606001604052806060815260200160008152602001600081525090565b5b8082111561050e5760008160009055506001016104f6565b5090565b6000604051905090565b600080fd5b600080fd5b6000819050919050565b61053981610526565b811461054457600080fd5b50565b60008135905061055681610530565b92915050565b6000602082840312156105725761057161051c565b5b600061058084828501610547565b91505092915050565b600081519050919050565b600082825260208201905092915050565b60005b838110156105c35780820151818401526020810190506105a8565b838111156105d2576000848401525b50505050565b6000601f19601f8301169050919050565b60006105f482610589565b6105fe8185610594565b935061060e8185602086016105a5565b610617816105d8565b840191505092915050565b61062b81610526565b82525050565b6000606082019050818103600083015261064b81866105e9565b905061065a6020830185610622565b6106676040830184610622565b949350505050565b600080fd5b600080fd5b7f4e487b7100000000000000000000000000000000000000000000000000000000600052604160045260246000fd5b6106b1826105d8565b810181811067ffffffffffffffff821117156106d0576106cf610679565b5b80604052505050565b60006106e3610512565b90506106ef82826106a8565b919050565b600067ffffffffffffffff82111561070f5761070e610679565b5b610718826105d8565b9050602081019050919050565b82818337600083830152505050565b6000610747610742846106f4565b6106d9565b90508281526020810184848401111561076357610762610674565b5b61076e848285610725565b509392505050565b600082601f83011261078b5761078a61066f565b5b813561079b848260208601610734565b91505092915050565b6000806000606084860312156107bd576107bc61051c565b5b60006107cb86828701610547565b935050602084013567ffffffffffffffff8111156107ec576107eb610521565b5b6107f886828701610776565b925050604061080986828701610547565b9150509250925092565b600080fd5b600080fd5b60008083601f8401126108335761083261066f565b5b8235905067ffffffffffffffff8111156108505761084f610813565b5b60208301915083600182028301111561086c5761086b610818565b5b9250929050565b6000806000806060858703121561088d5761088c61051c565b5b600061089b87828801610547565b945050602085013567ffffffffffffffff8111156108bc576108bb610521565b5b6108c88782880161081d565b935093505060406108db87828801610547565b91505092959194509250565b600080604083850312156108fe576108fd61051c565b5b600061090c85828601610547565b925050602061091d85828601610547565b9150509250929050565b600082825260208201905092915050565b600061094382610589565b61094d8185610927565b935061095d8185602086016105a5565b610966816105d8565b840191505092915050565b61097a81610526565b82525050565b6000606083016000830151848203600086015261099d8282610938565b91505060208301516109b26020860182610971565b5060408301516109c56040860182610971565b508091505092915050565b600060208201905081810360008301526109ea8184610980565b905092915050565b7f4e487b7100000000000000000000000000000000000000000000000000000000600052602260045260246000fd5b60006002820490506001821680610a3957607f821691505b602082108103610a4c57610a4b6109f2565b5b50919050565b7f4576656e742068617320616c726561647920726561636865642069747320676f60008201527f616c000000000000000000000000000000000000000000000000000000000000602082015250565b6000610aae602283610594565b9150610ab982610a52565b604082019050919050565b60006020820190508181036000830152610add81610aa1565b9050919050565b7f4e487b7100000000000000000000000000000000000000000000000000000000600052601160045260246000fd5b6000610b1e82610526565b9150610b2983610526565b9250827fffffffffffffffffffffffffffffffffffffffffffffffffffffffffffffffff03821115610b5e57610b5d610ae4565b5b82820190509291505056fea26469706673582212208bab33927aaec5881472b9b89524f935e4ee6c2753b218a2f2481d1cfa38dc0864736f6c634300080d0033",
  "immutableReferences": {},
  "source": "// SPDX-License-Identifier: UNLICENSED\npragma solidity ^0.8.0;\n\ncontract FundRaiser {\n\n  constructor(){\n\n  }\n\n  struct Event {\n    string name;\n    uint256 goal;\n    uint256 goalAchieved;\n  }\n\n  mapping(uint256 => Event) public events;\n\n\n  function createEvent(uint256 eventId, string calldata _name, uint256 _goal) public {\n    events[eventId] = Event(_name, _goal, 0);\n  }\n\n  function updateEvent(uint256 _id, string memory _name, uint256 _goal) public {\n    require(events[_id].goalAchieved < events[_id].goal, \"Event has already reached its goal\");\n    events[_id].name = _name;\n    events[_id].goal = _goal;\n  }\n\n  function fund(uint256 _id, uint256 _amount) public payable {\n    events[_id].goalAchieved += _amount;\n  }\n\n  function getEventDetails(uint256 _id) public view returns (Event memory) {\n    return events[_id];\n  }\n}",
  "sourcePath": "/home/abhay/data/Learn/fund.eth/backend/contracts/FundRaiser.sol",
  "compiler": {
    "name": "solc",
    "version": "0.8.13+commit.abaa5c0e.Emscripten.clang"
  },
  "schemaVersion": "3.4.16",
  "updatedAt": "2024-09-17T10:41:20.260Z",
  "networkType": "ethereum",
  "devdoc": {
    "kind": "dev",
    "methods": {},
    "version": 1
  },
  "userdoc": {
    "kind": "user",
    "methods": {},
    "version": 1
  }
}